{
  "_format": "hh3-artifact-1",
  "contractName": "ChanNong",
  "sourceName": "contracts/ChanNong.sol",
  "abi": [
    {
      "anonymous": false,
      "inputs": [
        {
          "indexed": true,
          "internalType": "uint256",
          "name": "id",
          "type": "uint256"
        },
        {
          "indexed": false,
          "internalType": "string",
          "name": "name",
          "type": "string"
        },
        {
          "indexed": true,
          "internalType": "address",
          "name": "producer",
          "type": "address"
        },
        {
          "indexed": false,
          "internalType": "uint256",
          "name": "timestamp",
          "type": "uint256"
        }
      ],
      "name": "ProductCreated",
      "type": "event"
    },
    {
      "inputs": [
        {
          "internalType": "uint256",
          "name": "_id",
          "type": "uint256"
        },
        {
          "internalType": "string",
          "name": "_name",
          "type": "string"
        },
        {
          "internalType": "string",
          "name": "_origin",
          "type": "string"
        },
        {
          "internalType": "string",
          "name": "_qualityStandard",
          "type": "string"
        },
        {
          "internalType": "string",
          "name": "_inspectionResult",
          "type": "string"
        },
        {
          "internalType": "string",
          "name": "_productionDate",
          "type": "string"
        },
        {
          "internalType": "string",
          "name": "_expiryDate",
          "type": "string"
        }
      ],
      "name": "addProduct",
      "outputs": [],
      "stateMutability": "nonpayable",
      "type": "function"
    },
    {
      "inputs": [
        {
          "internalType": "uint256",
          "name": "_id",
          "type": "uint256"
        }
      ],
      "name": "getProduct",
      "outputs": [
        {
          "components": [
            {
              "internalType": "uint256",
              "name": "id",
              "type": "uint256"
            },
            {
              "internalType": "string",
              "name": "name",
              "type": "string"
            },
            {
              "internalType": "string",
              "name": "origin",
              "type": "string"
            },
            {
              "internalType": "string",
              "name": "qualityStandard",
              "type": "string"
            },
            {
              "internalType": "string",
              "name": "inspectionResult",
              "type": "string"
            },
            {
              "internalType": "string",
              "name": "productionDate",
              "type": "string"
            },
            {
              "internalType": "string",
              "name": "expiryDate",
              "type": "string"
            },
            {
              "internalType": "address",
              "name": "producer",
              "type": "address"
            },
            {
              "internalType": "bool",
              "name": "exists",
              "type": "bool"
            }
          ],
          "internalType": "struct ChanNong.Product",
          "name": "",
          "type": "tuple"
        }
      ],
      "stateMutability": "view",
      "type": "function"
    },
    {
      "inputs": [
        {
          "internalType": "uint256",
          "name": "",
          "type": "uint256"
        }
      ],
      "name": "products",
      "outputs": [
        {
          "internalType": "uint256",
          "name": "id",
          "type": "uint256"
        },
        {
          "internalType": "string",
          "name": "name",
          "type": "string"
        },
        {
          "internalType": "string",
          "name": "origin",
          "type": "string"
        },
        {
          "internalType": "string",
          "name": "qualityStandard",
          "type": "string"
        },
        {
          "internalType": "string",
          "name": "inspectionResult",
          "type": "string"
        },
        {
          "internalType": "string",
          "name": "productionDate",
          "type": "string"
        },
        {
          "internalType": "string",
          "name": "expiryDate",
          "type": "string"
        },
        {
          "internalType": "address",
          "name": "producer",
          "type": "address"
        },
        {
          "internalType": "bool",
          "name": "exists",
          "type": "bool"
        }
      ],
      "stateMutability": "view",
      "type": "function"
    }
  ],
  "bytecode": "0x6080604052348015600e575f5ffd5b506115268061001c5f395ff3fe608060405234801561000f575f5ffd5b506004361061003f575f3560e01c80637acc0b2014610043578063b9db15b41461007b578063d18bbaf6146100ab575b5f5ffd5b61005d60048036038101906100589190610b83565b6100c7565b60405161007299989796959493929190610c86565b60405180910390f35b61009560048036038101906100909190610b83565b610460565b6040516100a29190610e95565b60405180910390f35b6100c560048036038101906100c09190610fe1565b6108c4565b005b5f602052805f5260405f205f91509050805f0154908060010180546100eb90611153565b80601f016020809104026020016040519081016040528092919081815260200182805461011790611153565b80156101625780601f1061013957610100808354040283529160200191610162565b820191905f5260205f20905b81548152906001019060200180831161014557829003601f168201915b50505050509080600201805461017790611153565b80601f01602080910402602001604051908101604052809291908181526020018280546101a390611153565b80156101ee5780601f106101c5576101008083540402835291602001916101ee565b820191905f5260205f20905b8154815290600101906020018083116101d157829003601f168201915b50505050509080600301805461020390611153565b80601f016020809104026020016040519081016040528092919081815260200182805461022f90611153565b801561027a5780601f106102515761010080835404028352916020019161027a565b820191905f5260205f20905b81548152906001019060200180831161025d57829003601f168201915b50505050509080600401805461028f90611153565b80601f01602080910402602001604051908101604052809291908181526020018280546102bb90611153565b80156103065780601f106102dd57610100808354040283529160200191610306565b820191905f5260205f20905b8154815290600101906020018083116102e957829003601f168201915b50505050509080600501805461031b90611153565b80601f016020809104026020016040519081016040528092919081815260200182805461034790611153565b80156103925780601f1061036957610100808354040283529160200191610392565b820191905f5260205f20905b81548152906001019060200180831161037557829003601f168201915b5050505050908060060180546103a790611153565b80601f01602080910402602001604051908101604052809291908181526020018280546103d390611153565b801561041e5780601f106103f55761010080835404028352916020019161041e565b820191905f5260205f20905b81548152906001019060200180831161040157829003601f168201915b505050505090806007015f9054906101000a900473ffffffffffffffffffffffffffffffffffffffff16908060070160149054906101000a900460ff16905089565b610468610ade565b5f5f8381526020019081526020015f2060070160149054906101000a900460ff166104c8576040517f08c379a00000000000000000000000000000000000000000000000000000000081526004016104bf906111cd565b60405180910390fd5b5f5f8381526020019081526020015f20604051806101200160405290815f82015481526020016001820180546104fd90611153565b80601f016020809104026020016040519081016040528092919081815260200182805461052990611153565b80156105745780601f1061054b57610100808354040283529160200191610574565b820191905f5260205f20905b81548152906001019060200180831161055757829003601f168201915b5050505050815260200160028201805461058d90611153565b80601f01602080910402602001604051908101604052809291908181526020018280546105b990611153565b80156106045780601f106105db57610100808354040283529160200191610604565b820191905f5260205f20905b8154815290600101906020018083116105e757829003601f168201915b5050505050815260200160038201805461061d90611153565b80601f016020809104026020016040519081016040528092919081815260200182805461064990611153565b80156106945780601f1061066b57610100808354040283529160200191610694565b820191905f5260205f20905b81548152906001019060200180831161067757829003601f168201915b505050505081526020016004820180546106ad90611153565b80601f01602080910402602001604051908101604052809291908181526020018280546106d990611153565b80156107245780601f106106fb57610100808354040283529160200191610724565b820191905f5260205f20905b81548152906001019060200180831161070757829003601f168201915b5050505050815260200160058201805461073d90611153565b80601f016020809104026020016040519081016040528092919081815260200182805461076990611153565b80156107b45780601f1061078b576101008083540402835291602001916107b4565b820191905f5260205f20905b81548152906001019060200180831161079757829003601f168201915b505050505081526020016006820180546107cd90611153565b80601f01602080910402602001604051908101604052809291908181526020018280546107f990611153565b80156108445780601f1061081b57610100808354040283529160200191610844565b820191905f5260205f20905b81548152906001019060200180831161082757829003601f168201915b50505050508152602001600782015f9054906101000a900473ffffffffffffffffffffffffffffffffffffffff1673ffffffffffffffffffffffffffffffffffffffff1673ffffffffffffffffffffffffffffffffffffffff1681526020016007820160149054906101000a900460ff1615151515815250509050919050565b5f5f8881526020019081526020015f2060070160149054906101000a900460ff1615610925576040517f08c379a000000000000000000000000000000000000000000000000000000000815260040161091c90611235565b60405180910390fd5b6040518061012001604052808881526020018781526020018681526020018581526020018481526020018381526020018281526020013373ffffffffffffffffffffffffffffffffffffffff168152602001600115158152505f5f8981526020019081526020015f205f820151815f015560208201518160010190816109ab91906113f3565b5060408201518160020190816109c191906113f3565b5060608201518160030190816109d791906113f3565b5060808201518160040190816109ed91906113f3565b5060a0820151816005019081610a0391906113f3565b5060c0820151816006019081610a1991906113f3565b5060e0820151816007015f6101000a81548173ffffffffffffffffffffffffffffffffffffffff021916908373ffffffffffffffffffffffffffffffffffffffff1602179055506101008201518160070160146101000a81548160ff0219169083151502179055509050503373ffffffffffffffffffffffffffffffffffffffff16877f90934fc9dc1095f968f4207cb62e27da1da3e31653ff34cbf837b6c349ded7608842604051610acd9291906114c2565b60405180910390a350505050505050565b6040518061012001604052805f81526020016060815260200160608152602001606081526020016060815260200160608152602001606081526020015f73ffffffffffffffffffffffffffffffffffffffff1681526020015f151581525090565b5f604051905090565b5f5ffd5b5f5ffd5b5f819050919050565b610b6281610b50565b8114610b6c575f5ffd5b50565b5f81359050610b7d81610b59565b92915050565b5f60208284031215610b9857610b97610b48565b5b5f610ba584828501610b6f565b91505092915050565b610bb781610b50565b82525050565b5f81519050919050565b5f82825260208201905092915050565b8281835e5f83830152505050565b5f601f19601f8301169050919050565b5f610bff82610bbd565b610c098185610bc7565b9350610c19818560208601610bd7565b610c2281610be5565b840191505092915050565b5f73ffffffffffffffffffffffffffffffffffffffff82169050919050565b5f610c5682610c2d565b9050919050565b610c6681610c4c565b82525050565b5f8115159050919050565b610c8081610c6c565b82525050565b5f61012082019050610c9a5f83018c610bae565b8181036020830152610cac818b610bf5565b90508181036040830152610cc0818a610bf5565b90508181036060830152610cd48189610bf5565b90508181036080830152610ce88188610bf5565b905081810360a0830152610cfc8187610bf5565b905081810360c0830152610d108186610bf5565b9050610d1f60e0830185610c5d565b610d2d610100830184610c77565b9a9950505050505050505050565b610d4481610b50565b82525050565b5f82825260208201905092915050565b5f610d6482610bbd565b610d6e8185610d4a565b9350610d7e818560208601610bd7565b610d8781610be5565b840191505092915050565b610d9b81610c4c565b82525050565b610daa81610c6c565b82525050565b5f61012083015f830151610dc65f860182610d3b565b5060208301518482036020860152610dde8282610d5a565b91505060408301518482036040860152610df88282610d5a565b91505060608301518482036060860152610e128282610d5a565b91505060808301518482036080860152610e2c8282610d5a565b91505060a083015184820360a0860152610e468282610d5a565b91505060c083015184820360c0860152610e608282610d5a565b91505060e0830151610e7560e0860182610d92565b50610100830151610e8a610100860182610da1565b508091505092915050565b5f6020820190508181035f830152610ead8184610db0565b905092915050565b5f5ffd5b5f5ffd5b7f4e487b71000000000000000000000000000000000000000000000000000000005f52604160045260245ffd5b610ef382610be5565b810181811067ffffffffffffffff82111715610f1257610f11610ebd565b5b80604052505050565b5f610f24610b3f565b9050610f308282610eea565b919050565b5f67ffffffffffffffff821115610f4f57610f4e610ebd565b5b610f5882610be5565b9050602081019050919050565b828183375f83830152505050565b5f610f85610f8084610f35565b610f1b565b905082815260208101848484011115610fa157610fa0610eb9565b5b610fac848285610f65565b509392505050565b5f82601f830112610fc857610fc7610eb5565b5b8135610fd8848260208601610f73565b91505092915050565b5f5f5f5f5f5f5f60e0888a031215610ffc57610ffb610b48565b5b5f6110098a828b01610b6f565b975050602088013567ffffffffffffffff81111561102a57611029610b4c565b5b6110368a828b01610fb4565b965050604088013567ffffffffffffffff81111561105757611056610b4c565b5b6110638a828b01610fb4565b955050606088013567ffffffffffffffff81111561108457611083610b4c565b5b6110908a828b01610fb4565b945050608088013567ffffffffffffffff8111156110b1576110b0610b4c565b5b6110bd8a828b01610fb4565b93505060a088013567ffffffffffffffff8111156110de576110dd610b4c565b5b6110ea8a828b01610fb4565b92505060c088013567ffffffffffffffff81111561110b5761110a610b4c565b5b6111178a828b01610fb4565b91505092959891949750929550565b7f4e487b71000000000000000000000000000000000000000000000000000000005f52602260045260245ffd5b5f600282049050600182168061116a57607f821691505b60208210810361117d5761117c611126565b5b50919050565b7f4c6f693a204b686f6e672074696d20746861792073616e207068616d210000005f82015250565b5f6111b7601d83610bc7565b91506111c282611183565b602082019050919050565b5f6020820190508181035f8301526111e4816111ab565b9050919050565b7f4c6f693a2049442073616e207068616d206e617920646120746f6e20746169215f82015250565b5f61121f602083610bc7565b915061122a826111eb565b602082019050919050565b5f6020820190508181035f83015261124c81611213565b9050919050565b5f819050815f5260205f209050919050565b5f6020601f8301049050919050565b5f82821b905092915050565b5f600883026112af7fffffffffffffffffffffffffffffffffffffffffffffffffffffffffffffffff82611274565b6112b98683611274565b95508019841693508086168417925050509392505050565b5f819050919050565b5f6112f46112ef6112ea84610b50565b6112d1565b610b50565b9050919050565b5f819050919050565b61130d836112da565b611321611319826112fb565b848454611280565b825550505050565b5f5f905090565b611338611329565b611343818484611304565b505050565b5b818110156113665761135b5f82611330565b600181019050611349565b5050565b601f8211156113ab5761137c81611253565b61138584611265565b81016020851015611394578190505b6113a86113a085611265565b830182611348565b50505b505050565b5f82821c905092915050565b5f6113cb5f19846008026113b0565b1980831691505092915050565b5f6113e383836113bc565b9150826002028217905092915050565b6113fc82610bbd565b67ffffffffffffffff81111561141557611414610ebd565b5b61141f8254611153565b61142a82828561136a565b5f60209050601f83116001811461145b575f8415611449578287015190505b61145385826113d8565b8655506114ba565b601f19841661146986611253565b5f5b828110156114905784890151825560018201915060208501945060208101905061146b565b868310156114ad57848901516114a9601f8916826113bc565b8355505b6001600288020188555050505b505050505050565b5f6040820190508181035f8301526114da8185610bf5565b90506114e96020830184610bae565b939250505056fea2646970667358221220f6dac68b7bc04537f3829c5fc438285b314e7f2de5c3141fb623dfac058e88cd64736f6c634300081c0033",
  "linkReferences": {},
  "deployedLinkReferences": {},
  "immutableReferences": {},
  "inputSourceName": "project/contracts/ChanNong.sol",
  "buildInfoId": "solc-0_8_28-a92c4756ee8c1fc440b622ad85c7fd2eca832c45"
}